:020000040800F2
:100000001025002029020008C71900085F17000802
:10001000C5190008D1060008411D000800000000B5
:100020000000000000000000000000009101000836
:100030000B07000800000000D5010008051C00089F
:10004000430200084302000843020008430200087C
:10005000430200084302000843020008430200086C
:10006000430200084302000843020008D5060008C6
:10007000430200084302000843020008430200084C
:10008000430200084302000843020008430200083C
:10009000430200084302000843020008430200082C
:1000A000430200084302000843020008430200081C
:1000B000430200084302000843020008430200080C
:1000C00043020008430200084302000843020008FC
:1000D00043020008430200084302000843020008EC
:1000E00043020008430200084302000800F002F83F
:1000F00000F03FF80AA090E8000C82448344AAF183
:100100000107DA4501D100F034F8AFF2090EBAE880
:100110000F0013F0010F18BFFB1A43F0010318473B
:100120003829000058290000103A24BF78C878C147
:10013000FAD8520724BF30C830C144BF04680C60ED
:10014000704700000023002400250026103A28BF35
:1001500078C1FBD8520728BF30C148BF0B60704739
:10016000642900F0C980002070471FB51FBD10B57D
:1001700010BD00F0D0F91146FFF7F7FF01F007FEC0
:1001800000F0EEF903B4FFF7F2FF03BC00F0F6F95C
:10019000224B19680868B0E8F00F80F30988BFF3B4
:1001A0006F8F4FF0000080F311884EF00D0E7047F6
:1001B0000000000006480068006880F3088862B606
:1001C00061B6BFF34F8FBFF36F8F00DF00BF00BF7B
:1001D00008ED00E0EFF30980BFF36F8F0F4B1A6853
:1001E00020E9F00F106008B54FF0500080F311883F
:1001F000BFF34F8FBFF36F8F02F0E2F94FF00000B3
:1002000080F31188BDE8084019680868B0E8F00F6D
:1002100080F30988BFF36F8F704700BF1C00002078
:10022000EFF3058070470000094880470948004700
:10023000FEE7FEE7FEE7FEE7FEE7FEE7FEE7FEE796
:10024000FEE7FEE704480549054A064B70470000F3
:10025000851C0008ED000008101F0020102500205C
:1002600010210020102100200FB41CB5074B06AA56
:100270007B4469460090059800F035F900206946F6
:1002800000F044F91CBC5DF814FB0000990200006A
:100290002DE9F0410E460446002020622046E16828
:1002A000884730B3252805D0D4E901219047206A3A
:1002B000401CF2E7E168204600278847050018D077
:1002C000A5F14100192802D820354FF400673246C5
:1002D000294620462760FFF743FF40B1012804D09C
:1002E000F61D26F007060836D8E7361DD6E728465D
:1002F000DAE7206ABDE8F0812DE9F04106460024E6
:1003000010687529314616A510D0AFF3008000287B
:1003100002DA404213A507E031688A0701D512A529
:1003200002E0490704D511A5012401E0AFF30080E4
:1003300000210A2206F1240709E0B0FBF2FCB0FB21
:10034000F2F302FB1C00303078541846491C002898
:10035000F3D123462A463046BDE8F04100F064B8A8
:10036000000000002D0000002B0000002000000015
:1003700010B5203AC0F00B80B1E81850203AA0E840
:100380001850B1E81850A0E81850BFF4F5AF5FEA74
:10039000027C24BFB1E81850A0E8185044BF18C927
:1003A00018C0BDE810405FEA827C24BF51F8043BCE
:1003B00040F8043B08BF7047D20728BF31F8023B22
:1003C00048BF11F8012B28BF20F8023B48BF00F8B6
:1003D000012B70474FF0000200B513469446964635
:1003E000203922BFA0E80C50A0E80C50B1F1200148
:1003F000BFF4F7AF090728BFA0E80C5048BF0CC0F6
:100400005DF804EB890028BF40F8042B08BF704753
:1004100048BF20F8022B11F0804F18BF00F8012BC5
:1004200070477047704770472DE9F0470D46994671
:100430009246044600F124080168880604D5E06964
:1004400021F01001216000E00120A84201DD471BDE
:1004500000E00027A1697A1902EB0900081AA061DF
:100460002078C00602D42046AFF30080002608E0C2
:10047000D4E901211AF806009047206A401C761C36
:1004800020624E45F4DB2078C0060AD52046AFF343
:10049000008006E0D4E9012130209047206A401C0A
:1004A0002062381EA7F10107F4DC07E0D4E901213E
:1004B00018F805009047206A401C2062281EA5F10C
:1004C0000105F3DC2046AFF300802078000602D55A
:1004D0000220BDE8F0870120FBE7000001694A1C0B
:1004E00002610878704700B58FB0CDE90131002175
:1004F000059105497944CDE9031011466846FFF797
:10050000C7FE0FB000BD0000E5FFFFFF0A6802F85C
:10051000010B0A607047754600F02CF8AE460500E6
:100520006946534620F00700854618B020B5FFF70E
:1005300089FEBDE820404FF000064FF000074FF065
:1005400000084FF0000B21F00701AC46ACE8C009F1
:10055000ACE8C009ACE8C009ACE8C0098D467047FA
:1005600010B50446AFF300802046BDE81040FFF709
:1005700009BE000000487047AC1E00200149182049
:10058000ABBEFEE7260002007047000070B50446CF
:1005900000688168C943C90717D1816821F001014A
:1005A000816000F099FC05460AE000BF00F094FC71
:1005B000401B022804D920688068C043C00706D0C9
:1005C00020688068C043C007F0D0002070BDA06ADA
:1005D00040F01000A062E06A40F00100E0620120FB
:1005E00070BD10B50146406A826A12F0500F05D006
:1005F000006A026BBDE8104008461047816A41F46A
:100600000071816201688968C1F3424107290CD1F8
:10061000017B51B9816A21F480718162816AC904C8
:1006200003D4816A41F00101816200F0EFF810BD4E
:1006300010B5406A816A41F040018162C16A41F0AF
:100640000401C16200F0E4F810BD10B5406A00F08A
:10065000DEF810BDF8B500260446009600688168F3
:10066000C943C9072DD0816841F001018160164856
:1006700016490068B0FBF1F000E0401E0090002831
:10068000FBD100F029FC054616E000BF00F024FC79
:10069000401B022810D920688068C043C0070BD0D7
:1006A000A06A40F01000A062E06A40F00100E06241
:1006B00084F824600120F8BD20688068C043C0072A
:1006C000E4D10020F8BD00001800002040420F00D7
:1006D000FEE70000014800F0F9B900009810002082
:1006E00030B590F840500124AC40C56B6C60046894
:1006F00063604368102B036803D099600068C26090
:1007000030BD9A600068C16030BD704772B6FEE7C8
:10071000F8B50024009490F824202546012A12D030
:10072000012280F824204A681F23072A0DD2066878
:10073000776B521E02EB820293409F430B689340FB
:100740001F43776319E00220F8BD06680D2A0AD21C
:10075000376BD21F02EB820293409F430B6893409A
:100760001F43376309E0F76A0D3A02EB82029340B8
:100770009F430B6893401F43F7620A68072306688C
:100780000A2A0AD3F7680A3A02EB420293409F43CF
:100790008B6893401F43F76008E0376902EB420221
:1007A00093409F438B6893401F4337610A68102A28
:1007B00001D0112A20D1124B02689A4217D19368B6
:1007C0001B0219D4936843F400039360096810294D
:1007D00012D10C490C4A0968B1FBF2F101EB81011D
:1007E000490000E0491E00910029FBD104E0816A24
:1007F00041F020018162012480F824502046F8BD98
:10080000002401401800002040420F00704770474C
:10081000704700002DE9F0414FF0000704003D460D
:100820007ED0A06A002628B9E66284F824602046BB
:1008300000F07EF82046FFF7A9FEA16AC90600D4A1
:1008400020B1A06A40F01000A06269E0A16A21F422
:10085000885141F00201A1626268E169237B0A4389
:1008600047EA43010A43A1684FF48077B94209D0AF
:10087000012907D05FF0000194F814C0BCF1010F0A
:1008800002D00AE03946F7E7F3B1A36A43F0200348
:10089000A362E36A43F00103E3622368D3F804C070
:1008A0002CF4694C4CEA010CC3F804C021688B6835
:1008B000DFF870C003EA0C0313438B60A168B942F0
:1008C0000BD0012909D00CE0DFF85CC0A3690CEB68
:1008D00043330B4343F40061DFE7218A0D05A5F59F
:1008E00080152168CB6A23F470032B43CB62216807
:1008F00089680E4B1940914208D1E662A16A21F045
:10090000020141F00101A162BDE8F081A06A20F07E
:10091000020040F01000A062E06A40F00100E062D6
:100920000120F1E7FDF7E1FF00E0FFFFFE0E1FFFF2
:1009300070B586B000250646009501950295039591
:1009400000681A4988422ED11949886940F400701C
:100950008861886900F400700490886940F00400A0
:1009600088618869694600F004000490F8200090CE
:10097000032001900F4800F0B9F9104C0E48C4E96B
:1009800000058020C4E902504000206180006061C1
:100990002020C4E90605204600F042F908B1FFF71F
:1009A000B5FE3462666206B070BD000000240140EE
:1009B000001002400008014008000240981000208A
:1009C0002DE9F047894604463B4900683B4F0E1D20
:1009D0009046884201D0B84207D1306810F4702F99
:1009E00003D001252846BDE8F08794F824000128AB
:1009F0000CD0012084F824002046FFF72BFE0500D0
:100A00004FF0000004D084F82400EBE70220EAE76E
:100A1000A16A40F60162914341F48071A1622168AC
:100A2000B94218D1326812F4702F14D0A16A41F47F
:100A30008011A1623168490505D5A16A21F40051F0
:100A400041F48051A162A16AC9040AD5E16A21F08A
:100A50000601E16206E0A26A22F48012A2624968FD
:100A6000E9E7E06284F82400216A15488862216A77
:100A70001448C862216A1448086321686FF00200B4
:100A800008602068816841F4807181602168434674
:100A90004A464C31206A00F0F1F820688168C1F3C1
:100AA00042410729816803D041F48011816099E7B0
:100AB00041F4A001FAE700000024014000280140B1
:100AC000E30500084B060008310600082DE9F05F39
:100AD000C16B0C6801680B68D0F840C0042202FAB0
:100AE0000CF2494DDFF824A1494E4A4FDFF828B1F6
:100AF000DFF828E122422CD05A072AD50A6892064C
:100B000003D40A6822F004020A600168A94201D1F4
:100B1000042219E0514501D1402215E0B14202D131
:100B20004FF4806210E0B94202D14FF480420BE0F2
:100B3000594502D14FF4802206E0714502D14FF4AD
:100B4000800201E04FF080622F4908394A60C16A93
:100B50003BE04FF0020808FA0CF818EA040F4FF0D7
:100B600000094FF0010235D05FEA837832D50B6877
:100B70009B0605D40B6823F00A030B6080F8212044
:100B80000168A94201D1022219E0514501D1202278
:100B900015E0B14202D14FF4007210E0B94202D127
:100BA0004FF400520BE0594502D14FF4003206E0F9
:100BB000714502D14FF4001201E04FF0007212496A
:100BC00008394A6080F82090816A00291AD0BDE86F
:100BD000F05F0847082505FA0CF5254212D01B07DF
:100BE00010D50B6823F00E030B6090F84010C36B18
:100BF00002FA01F15960826380F8212080F8209088
:100C0000016BE2E7BDE8F09F080002401C000240D3
:100C10003000024044000240580002406C00024094
:100C200030B528B308C8134914221944B1FBF2F1B6
:100C30008900C16310498163022141771A6843F634
:100C4000F0718A43D0E900142143D0E902452C43D6
:100C500021430469214344692143846921431143A9
:100C6000196000214163012242770177084630BDB7
:100C7000012030BDF8FFFDBF0000024070B5044602
:100C800090F82000002501280CD0012084F82000D5
:100C900094F821600020012E06D084F8200002255F
:100CA000284670BD022070BD022684F82160A06332
:100CB0002068066826F0010606602046FFF710FD52
:100CC000E06A00282068016802D041F00E0106E0C9
:100CD00021F0040101602068016841F00A0101600F
:100CE0002068016841F001010160D9E72DE9F84F62
:100CF000DFF8B8910024A9F1040B23460F2709F16E
:100D0000040AABF1040EC9E00125A5402A40AA421D
:100D10007DD1674ED1F804C0ACEB0608B44532D0A3
:100D200014DCBCF1030F3AD009DCBCF1000F2AD06F
:100D3000BCF1010F1CD0BCF1020F31D11DE0BCF1A0
:100D4000110F17D0BCF1120F2AD119E0B8F5881F86
:100D500019D006DCB8F5803F15D0B8F5801F1FD13B
:100D600011E0B8F5001F0ED0B8F5041F18D10AE045
:100D7000CB6815E0CB681B1D12E0CB6808330FE091
:100D8000CB680C330CE08B682BB1012B4FF00803C0
:100D900003D0456104E0042302E0056100E0002384
:100DA000FF2A01D8064601E000F104064FEA840557
:100DB00001D9A5F12005D6F8008007FA05FC28EA3C
:100DC0000C0803FA05F548EA0508C6F800804D68E6
:100DD000ED0062D5374DAE6946F00106AE61AD69F2
:100DE00024F0030605F001050095334D06EB050CD4
:100DF000DCF80850A607360F07FA06F825EA0805BA
:100E0000DFF8B880404503D14FF0000817E044E018
:100E1000DFF8AC80404502D14FF001080FE0DFF869
:100E2000A480404502D14FF0020808E0DFF8988026
:100E3000404502D14FF0030801E04FF0040808FAE2
:100E400006F848EA0508CCF808804D68D9F8006033
:100E5000ED024D4601D5164300E096432E604D68E5
:100E6000DAF80060AD02554601D5164300E096431E
:100E70002E604D68DBF80060AD035D4601D516437A
:100E800000E096432E604D68DEF80060ED03754685
:100E900001D5164300E096432E60641C0D682A4677
:100EA000E5407FF431AFBDE8F88F00000804014051
:100EB0000000111000100240000001400008014035
:100EC000000C014000100140001401400AB1016112
:100ED00070470904FBE70000014880687047000084
:100EE0000C0000200248816802781144816070473C
:100EF0000C000020074810B5016841F010010160A6
:100F0000032000F07BF80F2000F006F800F024F832
:100F1000002010BD0020024070B50D4D04464FF476
:100F20007A712878B1FBF0F00A490968B1FBF0F05A
:100F300000F058FB48B9102C07D200222146501E61
:100F400000F03CF800206C6070BD012070BD000016
:100F50000C000020180000200F4808B5816941F0FE
:100F600001018161816901F001010091C16941F0D4
:100F70008051C161C069002200F0805000900F21B3
:100F8000901E00F01BF80548416821F0E06141F037
:100F90000071416008BD00000010024000000140E7
:100FA000002809DB00F01F02012191404009800068
:100FB00000F1E020C0F8001170470000F0B40E4BC3
:100FC0001B680C46C3F30223C3F10705042D00D9A7
:100FD0000425191D072901D2002300E0DB1E01268C
:100FE00006FA05F1491E214099409E40761E1640A2
:100FF0003143F0BC00F0A5BE0CED00E0064900F066
:10100000070208684FF6FF03184040EA0220034A2F
:1010100010430860704700000CED00E00000FA0586
:101020002DE9F84305460078354CC00754D0E069F7
:101030000026C00008D4E06940F08050E061E0691B
:10104000012600F0805000902E480168C90512D496
:101050000168804641F480710160FFF73DFF07465B
:1010600005E000BFFFF738FFC01B642823D8D8F87D
:101070000000C005F6D5206A10F4407021D0A98880
:1010800001F4407181421CD0206A1F49012220F4E2
:1010900040700A6000220A602062C00711D0FFF78A
:1010A0001BFF074641F2883808E000BFFFF714FF36
:1010B000C11B414502D90320BDE8F883206A80079F
:1010C000F4D5206A696820F44070084320621EB19C
:1010D000E06920F08050E0612878800705D56068DD
:1010E000A96820F44040084360602878C00605D510
:1010F0006068E96820F48000084360600020DBE756
:101100000010024000700040400442422DE9F047C8
:101110000F46050061D0434E306800F00700B8422A
:1011200009D2306820F0070038433060306800F0A2
:101130000700B84251D128683B4C810712D54007BF
:1011400003D5606840F4E06060602878000703D54C
:10115000606840F4605060606068A96820F0F0004A
:10116000084360602878C00728D06868012810D03C
:101170002168022810D0890700292EDA616821F041
:10118000030101436160FFF7A7FE804641F2883901
:101190000DE021688903EFE78901EDE7FFF79CFE89
:1011A000A0EB0801494502D90320BDE8F08760683B
:1011B000696800F00C00B0EB810FEFD1306800F0EF
:1011C0000700B8420BD9306820F007003843306080
:1011D000306800F00700B84201D00120E5E7287828
:1011E000400705D56068E96820F4E0600843606066
:1011F0002878000706D56068296920F4605040EA25
:10120000C100606000F038F86168084AC1F303115A
:10121000515CC8400649086006480068FFF77CFE3C
:101220000020C2E70020024000100240B22900085E
:101230001800002010000020044805490068496893
:10124000044AC1F30221515CC840704718000020D5
:1012500000100240C2290008044805490068496896
:10126000044AC1F3C221515CC840704718000020F5
:1012700000100240C22900080E4A51680E4801F0D1
:101280000C03042B11D0082B0FD10C48C1F383435E
:10129000C903C05C0AD55168084AC1F34041921E97
:1012A000515C054A5043B0FBF1F070470449484394
:1012B000704700000010024000127A00A2290008C6
:1012C00000093D002DE9F84F040070D02078C04D92
:1012D000C00749D06868C0F38100012807D068685A
:1012E000C0F38100022809D16868C00306D52868C8
:1012F000800339D560680028E7D035E06068B0F534
:10130000803F0BD010B1B0F5A02F11D0286820F489
:1013100080302860286820F4802002E0286840F4AB
:1013200080302860606890B1FFF7D6FD06460AE07D
:10133000286840F480202860F0E700BFFFF7CCFD6C
:10134000801B642873D828688003F7D50CE0FFF76A
:10135000C3FD064605E000BFFFF7BEFD801B642805
:10136000F0D828688003F7D420789A4E80074FF091
:1013700001094FF0000839D5686810F00C0F07D04C
:101380006868C0F38100022809D16868C00306D4E8
:101390002868800714D52069012808D110E0206949
:1013A000B0B1C6F80090FFF797FD074605E00AE1E7
:1013B000FFF792FDC01B0228C4D828688007F7D524
:1013C0002868616920F0F80040EAC10028600DE05B
:1013D000C6F80080FFF780FD074604E0FFF77CFDBC
:1013E000C01B022823D828688007F7D4207800077C
:1013F0002CD57948A169D9B1C0F80090FFF76CFDF0
:10140000074604E0FFF768FDC01B02280FD8686A92
:101410008007F7D571484FF4FA510068B0FBF1F03E
:10142000009000BF0098411E0091FAD20EE080E0CB
:10143000C0F80080FFF750FD074604E0FFF74CFDC1
:10144000C01B022875D8686A8007F7D42078400747
:1014500060D5E8690027C00008D4E86940F08050F2
:10146000E861E869012700F0805000905C4801685D
:10147000C90513D40168834641F480710160FFF708
:101480002BFD824606E000BFFFF726FDA0EB0A0019
:1014900064284ED8DBF80000C005F5D5E0680128C7
:1014A0000AD008B1052813D0286A20F0010028626C
:1014B000286A20F0040002E0286A40F00100286257
:1014C000E06841F2883B98B1FFF706FD82460BE0E9
:1014D000286A40F004002862EEE700BFFFF7FCFC3A
:1014E000A0EB0A0159455AD8286A8007F6D50CE0C6
:1014F000FFF7F2FC824605E0FFF7EEFCA0EB0A01E5
:1015000059454CD8286A8007F6D41FB1E86920F005
:101510008050E861E06988B36968C1F381010229FC
:1015200044D00228C6F8608004D0FFF7D5FC0446FA
:1015300038E034E0FFF7D0FC074604E0FFF7CCFCCE
:10154000C01B02282BD828688001F7D4206AB0F588
:10155000803F05D16868A16820F4003008436860C6
:10156000D4E908010843696821F4741108436860EC
:10157000C6F86090FFF7B0FC044606E025E000BF27
:10158000FFF7AAFC001B022809D828688001F7D5BC
:101590001BE000BFFFF7A0FC001B022802D90320BC
:1015A000BDE8F88F28688001F4D40EE00128F7D058
:1015B0006868226A00F48031914204D1616A00F4C3
:1015C0007010884201D00120EAE70020E8E700001F
:1015D00000100240000042428004424218000020F5
:1015E0000070004010B5401EB0F1807F01D3012093
:1015F00010BD4FF0E02460610F21601700F0A1FBE7
:101600000020A06107202061002010BD70B50400FB
:1016100004D094F84100002510B106E0012070BD0F
:1016200084F84050204600F023F8242084F841003C
:101630002068C16821F40051C160204600F024FBFD
:101640002068016921F4904101612068416921F01D
:101650002A0141612068C16841F40051C16065649C
:10166000202084F8410084F842006563002070BDAA
:1016700070B586B00024009401940294039403682A
:101680002648254E022103220515B3421ED1836947
:1016900043F480438361836903F480430493836943
:1016A00043F00403836180691D4E00F00400049040
:1016B0000802CDE90001039269463046FFF716FBA8
:1016C000CDE9005469463046029420E0154EB342FD
:1016D0001FD1C36943F48023C361C36903F480232A
:1016E0000493836943F0080383618069CDE9005165
:1016F00000F00800CDE903200B4D69462846FFF7AE
:10170000F5FAE814CDE90004694628460294FFF78B
:10171000EDFA06B070BD0000003801400010024034
:101720000008014000480040000C014090F84130A2
:10173000202B01D00220704779B172B101628284FE
:10174000C28400214164212180F841100068C168F1
:1017500041F08001C1600020704701207047FEE722
:10176000FEB50024264800940194244902940160A7
:101770008915816004730475052505614FF46021A6
:101780004460C161FFF746F808B1FEF7BFFF0326CA
:1017900001200096CDE9010469461948FEF7B8FF1B
:1017A00008B1FEF7B3FF04240220CDE900406946EA
:1017B0001348FEF7ADFF08B1FEF7A8FFCDE90056CC
:1017C00069460F48FEF7A4FF08B1FEF79FFF062009
:1017D000CDE9000469460A48FEF79AFF08B1FEF712
:1017E00095FF0720CDE9000569460548FEF790FF03
:1017F000002801D0FEF78AFFFEBD00000024014052
:1018000068100020094808B5416941F001014161B3
:101810004069002200F00100009005210B20FFF735
:10182000CDFBBDE808400B20FFF7BABB001002401B
:1018300010B596B01C2211496846FEF799FD0021AB
:10184000684600F0C9FA0E4C0C491C2220601C317D
:1018500007A8FEF78DFD002107A800F0BDFA074993
:1018600060601C2238310EA8FEF782FD00210EA810
:1018700000F0B2FAA06016B010BD00004C290008BC
:10188000000000202DE9F04786B000242D48009488
:10189000019402940394816941F01001816181698E
:1018A00001F010010491816941F020018161816999
:1018B00001F020010491816941F004018161816995
:1018C00001F004010491816941F00801816180699E
:1018D000DFF8748000F008004FF4604504900022A7
:1018E00029464046FFF7F2FADFF860900022072110
:1018F0004846FFF7EBFADFF858A047F2FB17002243
:1019000039465046FFF7E2FA009502260125039674
:10191000CDE9015469464046FFF7E8F90720CDE9D3
:101920000005CDE9024669464846FFF7DFF9009712
:101930000396CDE9015469465046FFF7D7F906B042
:10194000BDE8F0870010024000100140000801408F
:10195000000C01400C4810B50A4901604FF4E13118
:101960004160002181600C22C160C0E904128161E4
:10197000C161FFF74BFE002803D0BDE81040FEF721
:10198000C5BE10BD00380140DC1000200C4810B569
:101990000A4901604FF416514160002181600C2218
:1019A000C160C0E904128161C161FFF72FFE002808
:1019B00003D0BDE81040FEF7A9BE10BD00480040AE
:1019C00024110020FEE7FEE7012000F0F9F9FBE713
:1019D00008B50025424B434A43494448009500F06E
:1019E000C0F9434B434A44494448009500F0B9F9D3
:1019F000434B444A44494548009500F0B2F9444BF2
:101A0000444A45494548009500F0ABF9444B454AE6
:101A100045494648009500F0A4F9454C04F12806D4
:101A2000A06A6061E16AA161216BE161616B216281
:101A3000A16B6162216804EB8101C8636168A069E0
:101A400004EB81018865A168E06904EB8101886786
:101A5000E168206A04EB8101C1F898002169606A9D
:101A600004EB8101C1F8B8002068401C2060072801
:101A700000DD25606068401C6060072800DD65604F
:101A8000A068401CA060072800DDA560E068401C3D
:101A9000E060072800DDE5602069401C2061072820
:101AA00000DD25612178114800F060F921791348A3
:101AB00000F05CF9217A154800F058F9217B1748AD
:101AC00000F054F9217C194800F050F90522314604
:101AD0001848FEF775FF642000F072F9A0E70000D7
:101AE0009922000889220008792200085C1E002043
:101AF000C9220008B9220008A92200086C1E002093
:101B0000F9220008E9220008D92200087C1E0020E2
:101B10002923000819230008092300088C1E00202F
:101B20005923000849230008392300089C1E00207F
:101B30008400002068100020A2B02F4C4FF4806772
:101B400004F1E40604F2E445B4F8E40801284FD0B7
:101B5000C4E93756D4F8DC103A4628483C34FFF73D
:101B6000E5FD04F180000DF1780C0FC88CE80F0042
:101B700004F170000DF1680C0FC88CE80F0004F13F
:101B800060000DF1580C0FC88CE80F0004F15000F4
:101B90000DF1480C0FC88CE80F0004F140000DF166
:101BA000380C0FC88CE80F0004F130000DF1280C40
:101BB0000FC88CE80F0004F120000DF1180C0FC8BD
:101BC0008CE80F0004F110000DF1080C0FC88CE830
:101BD0000F00D4E90201CDE90001D4F8A40074E8B3
:101BE0000F230749FEF740FB0A2000F0E9F8ABE7B6
:101BF000C4E93765AEE7000084000020241100200E
:101C0000D429000810B5FFF76DF900F0C9FD0128CF
:101C100003D0BDE8104000F055BD10BD30B593B005
:101C200028216846FEF7D6FB14210AA8FEF7D2FB4E
:101C3000002401200F940225049000951020119497
:101C400005901094129407946846FFF73BFB08B187
:101C500072B6FEE70F20CDE90A040C940D94002122
:101C60000AA80E94FFF752FA08B172B6FEE70FA861
:101C70000F951194FFF7D4F9002801D072B6FEE752
:101C800013B030BD7047000070B5044600680169AC
:101C9000E26821F44051114301612169A0680843C1
:101CA000616908432168CA6841F20C639A430243A0
:101CB000CA6020684169A26921F440711143416101
:101CC0001E492068884202D1FFF7C6FA01E0FFF7FB
:101CD000B3FA00EBC00101EB0012606864218000E0
:101CE000B2FBF0F3B3FBF1F36FF018067343B2FBF2
:101CF000F0F5B2FBF0F605EB8305322303EB051597
:101D0000B5FBF1F5B6FBF1F605F0F00505EB0615B0
:101D1000B2FBF0F6B2FBF0F0B0FBF1F06FF018029E
:101D2000504306EB800003EB0010B0FBF1F021689C
:101D300000F00F002844886070BD000000380140AA
:101D4000FEE70907090E002804DB00F1E02080F817
:101D50000014704700F00F0000F1E02080F8141D1F
:101D6000704710B5029C80E81E0010BD70B5044697
:101D700001F00705216805F0010088476168C5F397
:101D800040008847A808A168BDE870400847FFF7F1
:101D9000B1F8FFF743FFFFF775FDFFF733FDFFF7DE
:101DA000DFFCFFF7D7FDFFF7F1FDFFF741FD00F086
:101DB0000EF8FEE701460020842900D0C81C7047B9
:101DC00010B500B9012000F097FB002010BD10B540
:101DD00000F0B8FB002010BD7FB50D4604464169F8
:101DE000B0F9080081B1A16971B1FFF7E3FFD4E94F
:101DF00005128DE80700D4E900102B46226900F097
:101E0000A4FC039004B070BDFFF7D4FF03A9CDE993
:101E10000001208A2B4682B2D4E9001000F068FC51
:101E2000012801D00020EDE70398EBE72DE9F04110
:101E3000184C0F460546E6682068001D00F094FA2D
:101E400038B9206890F82C1001208840216981431E
:101E50002161681C07D137B12168BDE8F0410E4807
:101E6000091D00F0C5BA20683544B54245602168B7
:101E700005D2A06BBDE8F041091D00F0A1BA606B6E
:101E8000091D00F09DFAA06A854200D2A562BDE856
:101E9000F08100001C000020481200202DE9F041D4
:101EA000054600F0B1FA2E4CA068401CA0602068E6
:101EB0002C4F10B1606940B32DE02560A068012867
:101EC00029D1002606EB860007EB800000F06AFAB5
:101ED000761C072EF6D323488C3000F063FA214895
:101EE000A03000F05FFA1F48B43000F05BFA1D48E4
:101EF000C83000F057FA1B48DC3000F053FA19489C
:101F00008C3060631430A06305E02068E96AC06A21
:101F1000884200D82560606A401C6062E96A01203E
:101F2000226988401043206101EB810007EB8000AB
:101F3000291D00F05DFA00F087FA606900280CD0D6
:101F40002068E96AC06A884207D207494FF080508A
:101F50000860BFF34F8FBFF36F8FBDE8F0810000C3
:101F60001C0000206C11002004ED00E010B50446B8
:101F700090F8510058B101280CD002280FD0502001
:101F800080F31188BFF34F8FBFF36F8FFEE7206B95
:101F900000F06EFA2046BDE8104000F069BA10BDAE
:101FA00010484FF44061420706D0C01D0D4920F093
:101FB0000700411AC1F540610B4A00230144C2E900
:101FC00000030839183A21F0070111604B600B60DB
:101FD0000B1AC0E9001393604FF00040536050614A
:101FE000704700005C12002070000020144E154C59
:101FF000A6F1C8074FF08058DFF84C9012E000BF00
:1020000000F002FAF068C568281D00F0ADF9A0687C
:10201000401EA0606068401E606000F015FA28460F
:10202000FFF7A4FF60680028EAD138680128F9D9D1
:10203000C9F80080BFF34F8FBFF36F8FF2E7000046
:10204000341200201C00002004ED00E02DE9F047D0
:102050009A46DDE9098481466FF00303206B03EBA8
:1020600082021044089E20F00707780707D050200E
:1020700080F31188BFF34F8FBFF36F8FFEE700250A
:1020800061B1002023180A5C83F834200A5C12B185
:10209000401C1028F6D384F8435001E084F83450F3
:1020A000072E00D30626E662C4E91165201D00F064
:1020B00084F904F1180000F080F92461C6F10700EA
:1020C0006462A061E56484F850505246494638463F
:1020D00000F0C0F82060B8F1000F01D0C8F800404F
:1020E000BDE8F08730B5114900E011460A68824228
:1020F000FBD34B685C18844203D1406818444860A5
:10210000084643681C18944209D1084C183C2468BE
:10211000A24209D052681A4442600A6812680260FA
:10212000814200D0086030BD0460F9E770000020F3
:102130000648416B096829B1416BC968C96849689B
:10214000816270474FF0FF31FAE700001C00002069
:1021500008484068401C4FF0500080F3118804D0BC
:10216000BFF34F8FBFF36F8FFEE7BFF34F8FBFF308
:102170006F8FFEE7780000202DE9F041054600272B
:1021800000F016FA324E306808B9FFF709FF70699F
:1021900005424ED1C5B3083568070ED005F00700DB
:1021A000C0F108000544680707D0502080F311886B
:1021B000BFF34F8FBFF36F8FFEE72DB3706885427B
:1021C00037D82348183001460C6801E020460C46F9
:1021D0006168A94202D221680029F7D131688C4296
:1021E00027D007682168016060680837411B102903
:1021F0000FD96019420708D0502080F31188BFF32F
:102200004F8FBFF36F8FFEE713E041606560FFF70C
:1022100069FF61687068401A7060B268904200D2CD
:10222000B060706901430020C4E90001F068401CFF
:10223000F06000F029FB780707D0502080F3118868
:10224000BFF34F8FBFF36F8FFEE73846BDE8F081D5
:102250005800002010B5031F4FF080741C601B1F36
:1022600021F001011960191F024B0B60143940382D
:102270000A6010BD51210008024608210148FEF7FE
:1022800025BE0000000C0140024610210148FEF767
:102290001DBE0000000C0140024620210148FEF74F
:1022A00015BE0000000C0140024640210148FEF727
:1022B0000DBE0000000C0140024680210148FEF7DF
:1022C00005BE0000000C014002464FF48071014839
:1022D000FEF7FCBD000C0140024604210148FEF758
:1022E000F5BD000000080140024602210148FEF74A
:1022F000EDBD000000080140024601210148FEF743
:10230000E5BD0000000C014002464FF400510148B9
:10231000FEF7DCBD0010014002464FF48041014849
:10232000FEF7D4BD0010014002464FF400410148C1
:10233000FEF7CCBD0010014002464FF48041014839
:10234000FEF7C4BD000C014002464FF400510148A5
:10235000FEF7BCBD000C014002464FF4805101481D
:10236000FEF7B4BD000C0140D0E9013201699A606A
:10237000D0E901235A604A68824201D182684A60EA
:10238000002202610868401E08600868704700006B
:10239000034B036003F15400086080201060704715
:1023A000140E002000F108014FF0FF32C0E90112C5
:1023B000C160016100210160704700210161704727
:1023C00030B50B685A1C02D000F1080202E0026925
:1023D00004E02246546825689D42FAD953684B6050
:1023E00099608A60516008610168491C016030BDD4
:1023F00042684A6093688B60936859609160086195
:102400000168491C01607047502080F31188BFF3B8
:102410004F8FBFF36F8F0A494868401C48600128FE
:102420000CD10848006810F0FF0F07D0502080F34F
:102430001188BFF34F8FBFF36F8FFEE77047000027
:102440007800002004ED00E00849486828B1401EEB
:10245000486001D180F311887047502080F31188C3
:10246000BFF34F8FBFF36F8FFEE7000078000020AF
:1024700070B500282AD0164DA0F10804606869697B
:10248000084207D1502080F31188BFF34F8FBFF36C
:102490006F8FFEE722683AB1502080F31188BFF3B6
:1024A0004F8FBFF36F8FFEE78843606000F080F8C6
:1024B00060686968084468602046FFF713FE286971
:1024C000401C2861BDE8704000F0DEB970BD00001E
:1024D000580000204FF0E020002101618161054992
:1024E0004FF47A720968B1FBF2F1491E416107218C
:1024F000016170471800002010B5020014D00F4889
:10250000006B38B1502080F31188BFF34F8FBFF3B9
:102510006F8FFEE700F04CF800211046FFF786FCB5
:1025200000F0B2F9002807D105494FF0805008604B
:10253000BFF34F8FBFF36F8F10BD00001C00002052
:1025400004ED00E010B586B00024039405AA04A9A8
:1025500003A80494FFF71CFFDDE903010094CDE913
:10256000011000230EA11048059A00F0EEF80F4963
:102570000028C86211D0502080F31188BFF34F8F1C
:10258000BFF36F8F4FF0FF30886201204861CC604D
:1025900006B0BDE8104000F041B806B010BD000024
:1025A00049444C4500000000ED1F00081C000020BD
:1025B0000248016B491C0163704700001C000020A9
:1025C0001448016B11B10121C16170470021C16143
:1025D0000169B1FA81F1C1F11F0101EB81020E49DC
:1025E00051F822306BB101EB820101F108034A6816
:1025F00052684A609A4201D152684A60D1680160CB
:102600007047502080F31188BFF34F8FBFF36F8F57
:10261000FEE700001C0000206C1100201CB52649BC
:1026200008780190FF20087008788DF800009DF868
:1026300000009DF8002000F0F000904207D05020EC
:1026400080F31188BFF34F8FBFF36F8FFEE79DF8C4
:1026500000001A4C00F0500020700720A06005E038
:102660009DF8002052008DF80020401E9DF80020AB
:102670001206F5D4A060032807D0502080F31188FB
:10268000BFF34F8FBFF36F8FFEE74FF44070A06032
:10269000019808700A48016841F4700101600168FE
:1026A00041F070410160FFF715FF00206060FDF709
:1026B00081FD00201CBD000000E400E07800002047
:1026C00020ED00E010B5502080F31188BFF34F8F4C
:1026D000BFF36F8F00F072F818B104494FF08050CB
:1026E0000860002080F3118810BD000004ED00E0B8
:1026F0002DE9FF5F8346DDE90E87994616468A4637
:102700009000FFF739FD05001CD05420FFF734FD81
:10271000040014D00020256384F85100CDE9024064
:10272000CDE900874B46324651465846FFF78EFCAE
:102730002046FFF7B3FB012004B0BDE8F09F284618
:10274000FFF796FE4FF0FF30F6E7F0B585B0DDE914
:102750000B640A9DA6B1DCB15427009726630226BC
:1027600084F85160002604AFCDE90246CDE9005758
:10277000FFF76CFC2046FFF791FB049805B0F0BD15
:10278000502080F31188BFF34F8FBFF36F8FFEE7A8
:10279000502080F31188BFF34F8FBFF36F8FFEE798
:1027A0000548416919B1006B18B10020704701203C
:1027B00070470220704700001C0000202DE9F04106
:1027C0002F4C0026206B28B1A069401CA061304628
:1027D000BDE8F081E5686D1CE56013D1606B0068B1
:1027E00038B1502080F31188BFF34F8FBFF36F8F44
:1027F000FEE7606BA16B6163A063206A401C2062EE
:10280000FFF796FCA06ADFF87C80854209D3606BF5
:102810000068A0B1606BC068C7687868854211D253
:10282000A0622068C06A00EB800158F821000128EE
:1028300000D90126E0690028C9D00126C7E74FF07A
:10284000FF30EDE7381DFFF78FFDB86A18B107F1CB
:102850001800FFF789FDF96A0120226988401043BA
:10286000206101EB810108EB8100391DFFF7C0FDFC
:10287000F86A2168C96A8842C9D30126C7E70000FF
:102880001C0000206C1100202DE9F0472C4D002485
:102890002746286B38B1FFF7B7FD286B401E286329
:1028A000286B40B146E0502080F31188BFF34F8F72
:1028B000BFF36F8FFEE7A968224E0120D1B3A6F1C6
:1028C000B40980463068E8B1F068C46804F11800C3
:1028D000FFF74AFD201DFFF747FDE06A2A6908FA65
:1028E00000F11143296100EB800109EB8100211DFA
:1028F000FFF77EFDE06A2968C96A8842E2D3C5F81D
:102900001C80DFE70CB1FFF713FCAC6944B146460D
:10291000FFF754FF00B1EE61641EF9D10020A861F9
:10292000E86938B10849012738070860BFF34F8FBD
:10293000BFF36F8FFFF788FD3846BDE8F0870000D2
:102940001C0000202012002004ED00E04C2A0008AA
:10295000C91900080000000000000000800000000D
:102960006C0900206C0B0020CC290008D11900084C
:10297000FDFF0000000000008000000000000000DB
:1029800000000000442A0008391B0008FDFF000079
:102990000000000080000000C00B0020C00D0020DF
:1029A000010202030405060708090A0B0C0D0E0FAD
:1029B00010100000000000000000010203040607E0
:1029C0000809000000000102030400007363616E47
:1029D00041444300313A25642C25642C25642C2580
:1029E000642C25642C25642C25642C25642C2564FA
:1029F0002C25642C25642C25642C25642C25642C22
:102A000025642C25642C25642C25642C25642C2518
:102A1000642C25642C25642C25642C25642C2564C9
:102A20002C25642C25642C25642C25642C25642CF1
:102A300025642C25642C25642C25642C25642C25E8
:102A400064000000626C6553656E640064656661D5
:102A5000756C745461736B00782A000800000020C4
:102A60008400000028010008FC2A000884000020DF
:102A70008C24000044010008000000000000000059
:102A80000000000001000000100000000000000035
:102A900000127A00000000000000000000000000AA
:102AA0000000000000000000000000000000000026
:102AB0000000000000000000000000000000000016
:102AC0000000000000000000000000000000000006
:102AD00000000000000000000000000000000000F6
:102AE00000000000000000000000000000000000E6
:0C2AF00000000000AAAAAAAA0000000032
:04000005080000ED02
:00000001FF
